{
  "contractName": "Vid_Traceability",
  "abi": [
    {
      "inputs": [],
      "stateMutability": "nonpayable",
      "type": "constructor"
    },
    {
      "anonymous": false,
      "inputs": [
        {
          "indexed": false,
          "internalType": "address",
          "name": "artist",
          "type": "address"
        },
        {
          "indexed": false,
          "internalType": "bytes32",
          "name": "IPFS_Hash",
          "type": "bytes32"
        }
      ],
      "name": "ArtistRequestRegistered",
      "type": "event"
    },
    {
      "anonymous": false,
      "inputs": [
        {
          "indexed": false,
          "internalType": "address",
          "name": "artist",
          "type": "address"
        }
      ],
      "name": "ArtistRequestingPermission",
      "type": "event"
    },
    {
      "anonymous": false,
      "inputs": [
        {
          "indexed": false,
          "internalType": "string",
          "name": "info",
          "type": "string"
        },
        {
          "indexed": false,
          "internalType": "bytes32",
          "name": "newHash",
          "type": "bytes32"
        }
      ],
      "name": "AttestationDenied",
      "type": "event"
    },
    {
      "anonymous": false,
      "inputs": [
        {
          "indexed": false,
          "internalType": "string",
          "name": "info",
          "type": "string"
        },
        {
          "indexed": false,
          "internalType": "bytes32",
          "name": "newHash",
          "type": "bytes32"
        }
      ],
      "name": "AttestationGranted",
      "type": "event"
    },
    {
      "anonymous": false,
      "inputs": [
        {
          "indexed": false,
          "internalType": "string",
          "name": "info",
          "type": "string"
        },
        {
          "indexed": false,
          "internalType": "bytes32",
          "name": "newHash",
          "type": "bytes32"
        }
      ],
      "name": "AttestationRequest",
      "type": "event"
    },
    {
      "anonymous": false,
      "inputs": [
        {
          "indexed": false,
          "internalType": "string",
          "name": "info",
          "type": "string"
        },
        {
          "indexed": false,
          "internalType": "address",
          "name": "artist",
          "type": "address"
        }
      ],
      "name": "PermissionDenied",
      "type": "event"
    },
    {
      "anonymous": false,
      "inputs": [
        {
          "indexed": false,
          "internalType": "string",
          "name": "info",
          "type": "string"
        },
        {
          "indexed": false,
          "internalType": "address",
          "name": "artist",
          "type": "address"
        }
      ],
      "name": "PermissionGranted",
      "type": "event"
    },
    {
      "inputs": [
        {
          "internalType": "bytes32",
          "name": "",
          "type": "bytes32"
        }
      ],
      "name": "Denied_Permissions",
      "outputs": [
        {
          "internalType": "enum Vid_Traceability.artistState",
          "name": "state",
          "type": "uint8"
        },
        {
          "internalType": "address",
          "name": "EA",
          "type": "address"
        },
        {
          "internalType": "bool",
          "name": "result",
          "type": "bool"
        }
      ],
      "stateMutability": "view",
      "type": "function",
      "constant": true
    },
    {
      "inputs": [
        {
          "internalType": "bytes32",
          "name": "",
          "type": "bytes32"
        }
      ],
      "name": "Granted_Permission_ChildVideos",
      "outputs": [
        {
          "internalType": "address",
          "name": "vid_owner",
          "type": "address"
        },
        {
          "internalType": "string",
          "name": "info",
          "type": "string"
        },
        {
          "internalType": "bytes32",
          "name": "IPFS_Hash",
          "type": "bytes32"
        },
        {
          "internalType": "string",
          "name": "metadata",
          "type": "string"
        },
        {
          "internalType": "uint256",
          "name": "timestamp",
          "type": "uint256"
        },
        {
          "internalType": "bool",
          "name": "agreement",
          "type": "bool"
        }
      ],
      "stateMutability": "view",
      "type": "function",
      "constant": true
    },
    {
      "inputs": [
        {
          "internalType": "bytes32",
          "name": "",
          "type": "bytes32"
        }
      ],
      "name": "Granted_Permissions",
      "outputs": [
        {
          "internalType": "enum Vid_Traceability.artistState",
          "name": "state",
          "type": "uint8"
        },
        {
          "internalType": "address",
          "name": "EA",
          "type": "address"
        },
        {
          "internalType": "bool",
          "name": "result",
          "type": "bool"
        }
      ],
      "stateMutability": "view",
      "type": "function",
      "constant": true
    },
    {
      "inputs": [
        {
          "internalType": "bytes32",
          "name": "",
          "type": "bytes32"
        }
      ],
      "name": "Records",
      "outputs": [
        {
          "internalType": "bytes32",
          "name": "",
          "type": "bytes32"
        }
      ],
      "stateMutability": "view",
      "type": "function",
      "constant": true
    },
    {
      "inputs": [
        {
          "internalType": "bytes32",
          "name": "",
          "type": "bytes32"
        }
      ],
      "name": "Requests",
      "outputs": [
        {
          "internalType": "enum Vid_Traceability.artistState",
          "name": "state",
          "type": "uint8"
        },
        {
          "internalType": "address",
          "name": "EA",
          "type": "address"
        },
        {
          "internalType": "bool",
          "name": "result",
          "type": "bool"
        }
      ],
      "stateMutability": "view",
      "type": "function",
      "constant": true
    },
    {
      "inputs": [
        {
          "internalType": "uint256",
          "name": "",
          "type": "uint256"
        }
      ],
      "name": "agreeVid",
      "outputs": [
        {
          "internalType": "address",
          "name": "vid_owner",
          "type": "address"
        },
        {
          "internalType": "string",
          "name": "info",
          "type": "string"
        },
        {
          "internalType": "bytes32",
          "name": "IPFS_Hash",
          "type": "bytes32"
        },
        {
          "internalType": "string",
          "name": "metadata",
          "type": "string"
        },
        {
          "internalType": "uint256",
          "name": "timestamp",
          "type": "uint256"
        },
        {
          "internalType": "bool",
          "name": "agreement",
          "type": "bool"
        }
      ],
      "stateMutability": "view",
      "type": "function",
      "constant": true
    },
    {
      "inputs": [],
      "name": "owner",
      "outputs": [
        {
          "internalType": "address",
          "name": "",
          "type": "address"
        }
      ],
      "stateMutability": "view",
      "type": "function",
      "constant": true
    },
    {
      "inputs": [
        {
          "internalType": "uint256",
          "name": "",
          "type": "uint256"
        }
      ],
      "name": "regVideos",
      "outputs": [
        {
          "internalType": "address",
          "name": "vid_owner",
          "type": "address"
        },
        {
          "internalType": "string",
          "name": "info",
          "type": "string"
        },
        {
          "internalType": "bytes32",
          "name": "IPFS_Hash",
          "type": "bytes32"
        },
        {
          "internalType": "string",
          "name": "metadata",
          "type": "string"
        },
        {
          "internalType": "uint256",
          "name": "timestamp",
          "type": "uint256"
        },
        {
          "internalType": "bool",
          "name": "agreement",
          "type": "bool"
        }
      ],
      "stateMutability": "view",
      "type": "function",
      "constant": true
    },
    {
      "inputs": [
        {
          "internalType": "uint256",
          "name": "",
          "type": "uint256"
        }
      ],
      "name": "requestEntries",
      "outputs": [
        {
          "internalType": "address",
          "name": "sender",
          "type": "address"
        },
        {
          "internalType": "bytes32",
          "name": "content",
          "type": "bytes32"
        }
      ],
      "stateMutability": "view",
      "type": "function",
      "constant": true
    },
    {
      "inputs": [],
      "name": "thisVideo",
      "outputs": [
        {
          "internalType": "address",
          "name": "vid_owner",
          "type": "address"
        },
        {
          "internalType": "string",
          "name": "info",
          "type": "string"
        },
        {
          "internalType": "bytes32",
          "name": "IPFS_Hash",
          "type": "bytes32"
        },
        {
          "internalType": "string",
          "name": "metadata",
          "type": "string"
        },
        {
          "internalType": "uint256",
          "name": "timestamp",
          "type": "uint256"
        },
        {
          "internalType": "bool",
          "name": "agreement",
          "type": "bool"
        }
      ],
      "stateMutability": "view",
      "type": "function",
      "constant": true
    },
    {
      "inputs": [
        {
          "internalType": "string",
          "name": "info",
          "type": "string"
        },
        {
          "internalType": "bytes32",
          "name": "hash",
          "type": "bytes32"
        },
        {
          "internalType": "string",
          "name": "metadata",
          "type": "string"
        },
        {
          "internalType": "bool",
          "name": "agreement",
          "type": "bool"
        }
      ],
      "name": "addVideo",
      "outputs": [],
      "stateMutability": "nonpayable",
      "type": "function"
    },
    {
      "inputs": [
        {
          "internalType": "bytes32",
          "name": "IPFS_Hash",
          "type": "bytes32"
        }
      ],
      "name": "checkIFVideoExists",
      "outputs": [
        {
          "internalType": "bool",
          "name": "s",
          "type": "bool"
        }
      ],
      "stateMutability": "view",
      "type": "function",
      "constant": true
    },
    {
      "inputs": [],
      "name": "getRegVideos",
      "outputs": [
        {
          "components": [
            {
              "internalType": "address",
              "name": "vid_owner",
              "type": "address"
            },
            {
              "internalType": "string",
              "name": "info",
              "type": "string"
            },
            {
              "internalType": "bytes32",
              "name": "IPFS_Hash",
              "type": "bytes32"
            },
            {
              "internalType": "string",
              "name": "metadata",
              "type": "string"
            },
            {
              "internalType": "uint256",
              "name": "timestamp",
              "type": "uint256"
            },
            {
              "internalType": "bool",
              "name": "agreement",
              "type": "bool"
            }
          ],
          "internalType": "struct Vid_Traceability.Video[]",
          "name": "",
          "type": "tuple[]"
        }
      ],
      "stateMutability": "view",
      "type": "function",
      "constant": true
    },
    {
      "inputs": [],
      "name": "getRequestEntries",
      "outputs": [
        {
          "components": [
            {
              "internalType": "address",
              "name": "sender",
              "type": "address"
            },
            {
              "internalType": "bytes32",
              "name": "content",
              "type": "bytes32"
            }
          ],
          "internalType": "struct Vid_Traceability.RequestReg[]",
          "name": "",
          "type": "tuple[]"
        }
      ],
      "stateMutability": "view",
      "type": "function",
      "constant": true
    },
    {
      "inputs": [],
      "name": "getAgreeVideos",
      "outputs": [
        {
          "components": [
            {
              "internalType": "address",
              "name": "vid_owner",
              "type": "address"
            },
            {
              "internalType": "string",
              "name": "info",
              "type": "string"
            },
            {
              "internalType": "bytes32",
              "name": "IPFS_Hash",
              "type": "bytes32"
            },
            {
              "internalType": "string",
              "name": "metadata",
              "type": "string"
            },
            {
              "internalType": "uint256",
              "name": "timestamp",
              "type": "uint256"
            },
            {
              "internalType": "bool",
              "name": "agreement",
              "type": "bool"
            }
          ],
          "internalType": "struct Vid_Traceability.Video[]",
          "name": "",
          "type": "tuple[]"
        }
      ],
      "stateMutability": "view",
      "type": "function",
      "constant": true
    },
    {
      "inputs": [
        {
          "internalType": "bytes32",
          "name": "ipfsHash",
          "type": "bytes32"
        }
      ],
      "name": "getVideoByHash",
      "outputs": [
        {
          "components": [
            {
              "internalType": "address",
              "name": "vid_owner",
              "type": "address"
            },
            {
              "internalType": "string",
              "name": "info",
              "type": "string"
            },
            {
              "internalType": "bytes32",
              "name": "IPFS_Hash",
              "type": "bytes32"
            },
            {
              "internalType": "string",
              "name": "metadata",
              "type": "string"
            },
            {
              "internalType": "uint256",
              "name": "timestamp",
              "type": "uint256"
            },
            {
              "internalType": "bool",
              "name": "agreement",
              "type": "bool"
            }
          ],
          "internalType": "struct Vid_Traceability.Video",
          "name": "v",
          "type": "tuple"
        }
      ],
      "stateMutability": "view",
      "type": "function",
      "constant": true
    },
    {
      "inputs": [
        {
          "internalType": "bytes32",
          "name": "IPFShash",
          "type": "bytes32"
        }
      ],
      "name": "getRequest",
      "outputs": [
        {
          "components": [
            {
              "internalType": "enum Vid_Traceability.artistState",
              "name": "state",
              "type": "uint8"
            },
            {
              "internalType": "address",
              "name": "EA",
              "type": "address"
            },
            {
              "internalType": "bool",
              "name": "result",
              "type": "bool"
            }
          ],
          "internalType": "struct Vid_Traceability.Artist",
          "name": "",
          "type": "tuple"
        }
      ],
      "stateMutability": "view",
      "type": "function",
      "constant": true
    },
    {
      "inputs": [
        {
          "internalType": "bytes32",
          "name": "IPFShash",
          "type": "bytes32"
        }
      ],
      "name": "getGrantedPermissions",
      "outputs": [
        {
          "components": [
            {
              "internalType": "enum Vid_Traceability.artistState",
              "name": "state",
              "type": "uint8"
            },
            {
              "internalType": "address",
              "name": "EA",
              "type": "address"
            },
            {
              "internalType": "bool",
              "name": "result",
              "type": "bool"
            }
          ],
          "internalType": "struct Vid_Traceability.Artist",
          "name": "",
          "type": "tuple"
        }
      ],
      "stateMutability": "view",
      "type": "function",
      "constant": true
    },
    {
      "inputs": [
        {
          "internalType": "bytes32",
          "name": "IPFShash",
          "type": "bytes32"
        }
      ],
      "name": "getDeniedPermissions",
      "outputs": [
        {
          "components": [
            {
              "internalType": "enum Vid_Traceability.artistState",
              "name": "state",
              "type": "uint8"
            },
            {
              "internalType": "address",
              "name": "EA",
              "type": "address"
            },
            {
              "internalType": "bool",
              "name": "result",
              "type": "bool"
            }
          ],
          "internalType": "struct Vid_Traceability.Artist",
          "name": "",
          "type": "tuple"
        }
      ],
      "stateMutability": "view",
      "type": "function",
      "constant": true
    },
    {
      "inputs": [
        {
          "internalType": "bytes32",
          "name": "IPFShash",
          "type": "bytes32"
        }
      ],
      "name": "getGrantedPermissionChildVideos",
      "outputs": [
        {
          "components": [
            {
              "internalType": "address",
              "name": "vid_owner",
              "type": "address"
            },
            {
              "internalType": "string",
              "name": "info",
              "type": "string"
            },
            {
              "internalType": "bytes32",
              "name": "IPFS_Hash",
              "type": "bytes32"
            },
            {
              "internalType": "string",
              "name": "metadata",
              "type": "string"
            },
            {
              "internalType": "uint256",
              "name": "timestamp",
              "type": "uint256"
            },
            {
              "internalType": "bool",
              "name": "agreement",
              "type": "bool"
            }
          ],
          "internalType": "struct Vid_Traceability.Video",
          "name": "",
          "type": "tuple"
        }
      ],
      "stateMutability": "view",
      "type": "function",
      "constant": true
    },
    {
      "inputs": [
        {
          "internalType": "bytes32",
          "name": "IPFShash",
          "type": "bytes32"
        }
      ],
      "name": "getRecords",
      "outputs": [
        {
          "components": [
            {
              "internalType": "address",
              "name": "vid_owner",
              "type": "address"
            },
            {
              "internalType": "string",
              "name": "info",
              "type": "string"
            },
            {
              "internalType": "bytes32",
              "name": "IPFS_Hash",
              "type": "bytes32"
            },
            {
              "internalType": "string",
              "name": "metadata",
              "type": "string"
            },
            {
              "internalType": "uint256",
              "name": "timestamp",
              "type": "uint256"
            },
            {
              "internalType": "bool",
              "name": "agreement",
              "type": "bool"
            }
          ],
          "internalType": "struct Vid_Traceability.Video",
          "name": "v",
          "type": "tuple"
        }
      ],
      "stateMutability": "view",
      "type": "function",
      "constant": true
    },
    {
      "inputs": [
        {
          "internalType": "bytes32",
          "name": "IPFShash",
          "type": "bytes32"
        }
      ],
      "name": "requestPermission",
      "outputs": [],
      "stateMutability": "nonpayable",
      "type": "function"
    },
    {
      "inputs": [
        {
          "internalType": "bool",
          "name": "result",
          "type": "bool"
        },
        {
          "internalType": "address",
          "name": "artist",
          "type": "address"
        },
        {
          "internalType": "bytes32",
          "name": "IPFShash",
          "type": "bytes32"
        }
      ],
      "name": "grantPermission",
      "outputs": [],
      "stateMutability": "nonpayable",
      "type": "function"
    },
    {
      "inputs": [
        {
          "internalType": "string",
          "name": "infor",
          "type": "string"
        },
        {
          "internalType": "bytes32",
          "name": "hash",
          "type": "bytes32"
        },
        {
          "internalType": "string",
          "name": "meta",
          "type": "string"
        },
        {
          "internalType": "bytes32",
          "name": "newHash",
          "type": "bytes32"
        }
      ],
      "name": "AttestSC",
      "outputs": [],
      "stateMutability": "nonpayable",
      "type": "function"
    },
    {
      "inputs": [
        {
          "internalType": "bool",
          "name": "result",
          "type": "bool"
        },
        {
          "internalType": "string",
          "name": "infor",
          "type": "string"
        },
        {
          "internalType": "bytes32",
          "name": "hash",
          "type": "bytes32"
        },
        {
          "internalType": "string",
          "name": "meta",
          "type": "string"
        },
        {
          "internalType": "bytes32",
          "name": "newHash",
          "type": "bytes32"
        }
      ],
      "name": "GrantAttestation",
      "outputs": [],
      "stateMutability": "nonpayable",
      "type": "function"
    }
  ],
  "bytecode": "0x60806040523480156200001157600080fd5b50336000806101000a81548173ffffffffffffffffffffffffffffffffffffffff021916908373ffffffffffffffffffffffffffffffffffffffff16021790555033600160000160006101000a81548173ffffffffffffffffffffffffffffffffffffffff021916908373ffffffffffffffffffffffffffffffffffffffff1602179055507f6b6b6f7766776a670000000000000000000000000000000000000000000000006001600201819055506040518060400160405280600d81526020017f412066756e6e7920566964656f0000000000000000000000000000000000000081525060018001908162000108919062000692565b506040518060400160405280601981526020017f446174613a31382f392f323031382c2054696d653a353a3537000000000000008152506001600301908162000152919062000692565b504260016004018190555060018060050160006101000a81548160ff0219169083151502179055506008600190806001815401808255809150506001900390600052602060002090600602016000909190919091506000820160009054906101000a900473ffffffffffffffffffffffffffffffffffffffff168160000160006101000a81548173ffffffffffffffffffffffffffffffffffffffff021916908373ffffffffffffffffffffffffffffffffffffffff1602179055506001820181600101908162000224919062000791565b50600282015481600201556003820181600301908162000245919062000791565b50600482015481600401556005820160009054906101000a900460ff168160050160006101000a81548160ff021916908315150217905550505060005b60088054905081101562000411576001151560088281548110620002ab57620002aa62000892565b5b906000526020600020906006020160050160009054906101000a900460ff16151503620003fb57600960088281548110620002eb57620002ea62000892565b5b906000526020600020906006020190806001815401808255809150506001900390600052602060002090600602016000909190919091506000820160009054906101000a900473ffffffffffffffffffffffffffffffffffffffff168160000160006101000a81548173ffffffffffffffffffffffffffffffffffffffff021916908373ffffffffffffffffffffffffffffffffffffffff160217905550600182018160010190816200039f919062000791565b506002820154816002015560038201816003019081620003c0919062000791565b50600482015481600401556005820160009054906101000a900460ff168160050160006101000a81548160ff02191690831515021790555050505b80806200040890620008f0565b91505062000282565b506200093d565b600081519050919050565b7f4e487b7100000000000000000000000000000000000000000000000000000000600052604160045260246000fd5b7f4e487b7100000000000000000000000000000000000000000000000000000000600052602260045260246000fd5b600060028204905060018216806200049a57607f821691505b602082108103620004b057620004af62000452565b5b50919050565b60008190508160005260206000209050919050565b60006020601f8301049050919050565b600082821b905092915050565b6000600883026200051a7fffffffffffffffffffffffffffffffffffffffffffffffffffffffffffffffff82620004db565b620005268683620004db565b95508019841693508086168417925050509392505050565b6000819050919050565b6000819050919050565b6000620005736200056d62000567846200053e565b62000548565b6200053e565b9050919050565b6000819050919050565b6200058f8362000552565b620005a76200059e826200057a565b848454620004e8565b825550505050565b600090565b620005be620005af565b620005cb81848462000584565b505050565b5b81811015620005f357620005e7600082620005b4565b600181019050620005d1565b5050565b601f82111562000642576200060c81620004b6565b6200061784620004cb565b8101602085101562000627578190505b6200063f6200063685620004cb565b830182620005d0565b50505b505050565b600082821c905092915050565b6000620006676000198460080262000647565b1980831691505092915050565b600062000682838362000654565b9150826002028217905092915050565b6200069d8262000418565b67ffffffffffffffff811115620006b957620006b862000423565b5b620006c5825462000481565b620006d2828285620005f7565b600060209050601f8311600181146200070a5760008415620006f5578287015190505b62000701858262000674565b86555062000771565b601f1984166200071a86620004b6565b60005b8281101562000744578489015182556001820191506020850194506020810190506200071d565b8683101562000764578489015162000760601f89168262000654565b8355505b6001600288020188555050505b505050505050565b6000815490506200078a8162000481565b9050919050565b818103620007a157505062000890565b620007ac8262000779565b67ffffffffffffffff811115620007c857620007c762000423565b5b620007d4825462000481565b620007e1828285620005f7565b6000601f83116001811462000815576000841562000800578287015490505b6200080c858262000674565b86555062000889565b601f1984166200082587620004b6565b96506200083286620004b6565b60005b828110156200085c5784890154825560018201915060018501945060208101905062000835565b868310156200087c578489015462000878601f89168262000654565b8355505b6001600288020188555050505b5050505050505b565b7f4e487b7100000000000000000000000000000000000000000000000000000000600052603260045260246000fd5b7f4e487b7100000000000000000000000000000000000000000000000000000000600052601160045260246000fd5b6000620008fd826200053e565b91507fffffffffffffffffffffffffffffffffffffffffffffffffffffffffffffffff8203620009325762000931620008c1565b5b600182019050919050565b6139e1806200094d6000396000f3fe608060405234801561001057600080fd5b50600436106101735760003560e01c806399bec125116100de578063c5ae646611610097578063e2f6364e11610071578063e2f6364e146104ff578063e7acbbb61461051b578063fb1e61ca14610539578063fb8aa4471461056957610173565b8063c5ae646614610469578063d41e11541461049a578063e1ff3685146104ca57610173565b806399bec1251461036f5780639ff07dd21461039f578063ab6f6fee146103cf578063ac155ff714610401578063b081ab3d1461041d578063b8e7a6441461044d57610173565b80635c15260c116101305780635c15260c146102a457806362558475146102c0578063637a2b1d146102e35780636a43ef66146103015780638da5cb5b1461031f5780639610b9bb1461033d57610173565b8063011dae5514610178578063012b173d146101a85780630ef37283146101da578063106c79b81461020a5780633e3bd9cd1461023f5780634ed0332514610274575b600080fd5b610192600480360381019061018d91906127c4565b610585565b60405161019f919061280c565b60405180910390f35b6101c260048036038101906101bd91906127c4565b6105f1565b6040516101d1939291906128df565b60405180910390f35b6101f460048036038101906101ef91906127c4565b610655565b6040516102019190612a7c565b60405180910390f35b610224600480360381019061021f9190612aca565b610831565b60405161023696959493929190612b5f565b60405180910390f35b61025960048036038101906102549190612aca565b6109ba565b60405161026b96959493929190612b5f565b60405180910390f35b61028e600480360381019061028991906127c4565b610b43565b60405161029b9190612a7c565b60405180910390f35b6102be60048036038101906102b991906127c4565b610bd6565b005b6102c8610e65565b6040516102da96959493929190612b5f565b60405180910390f35b6102eb610fcc565b6040516102f89190612cac565b60405180910390f35b61030961108b565b6040516103169190612e20565b60405180910390f35b610327611293565b6040516103349190612e42565b60405180910390f35b610357600480360381019061035291906127c4565b6112b7565b604051610366939291906128df565b60405180910390f35b610389600480360381019061038491906127c4565b61131b565b6040516103969190612e5d565b60405180910390f35b6103b960048036038101906103b491906127c4565b611333565b6040516103c69190612a7c565b60405180910390f35b6103e960048036038101906103e491906127c4565b61156f565b6040516103f8939291906128df565b60405180910390f35b61041b60048036038101906104169190612fd9565b6115d3565b005b610437600480360381019061043291906127c4565b611745565b60405161044491906130c9565b60405180910390f35b610467600480360381019061046291906130e4565b611824565b005b610483600480360381019061047e9190612aca565b611a73565b604051610491929190613183565b60405180910390f35b6104b460048036038101906104af91906127c4565b611ac7565b6040516104c191906130c9565b60405180910390f35b6104e460048036038101906104df91906127c4565b611ba6565b6040516104f696959493929190612b5f565b60405180910390f35b610519600480360381019061051491906131ac565b611d1f565b005b61052361206b565b6040516105309190612e20565b60405180910390f35b610553600480360381019061054e91906127c4565b612273565b60405161056091906130c9565b60405180910390f35b610583600480360381019061057e919061328b565b612352565b005b6000806000905060005b60088054905081116105e95783600882815481106105b0576105af6132de565b5b906000526020600020906006020160020154036105d657600191506001925050506105ec565b80806105e19061333c565b91505061058f565b50505b919050565b600d6020528060005260406000206000915090508060000160009054906101000a900460ff16908060000160019054906101000a900473ffffffffffffffffffffffffffffffffffffffff16908060000160159054906101000a900460ff16905083565b61065d6126de565b6000600a60008481526020019081526020016000206040518060c00160405290816000820160009054906101000a900473ffffffffffffffffffffffffffffffffffffffff1673ffffffffffffffffffffffffffffffffffffffff1673ffffffffffffffffffffffffffffffffffffffff1681526020016001820180546106e3906133b3565b80601f016020809104026020016040519081016040528092919081815260200182805461070f906133b3565b801561075c5780601f106107315761010080835404028352916020019161075c565b820191906000526020600020905b81548152906001019060200180831161073f57829003601f168201915b505050505081526020016002820154815260200160038201805461077f906133b3565b80601f01602080910402602001604051908101604052809291908181526020018280546107ab906133b3565b80156107f85780601f106107cd576101008083540402835291602001916107f8565b820191906000526020600020905b8154815290600101906020018083116107db57829003601f168201915b50505050508152602001600482015481526020016005820160009054906101000a900460ff161515151581525050905080915050919050565b6008818154811061084157600080fd5b90600052602060002090600602016000915090508060000160009054906101000a900473ffffffffffffffffffffffffffffffffffffffff169080600101805461088a906133b3565b80601f01602080910402602001604051908101604052809291908181526020018280546108b6906133b3565b80156109035780601f106108d857610100808354040283529160200191610903565b820191906000526020600020905b8154815290600101906020018083116108e657829003601f168201915b50505050509080600201549080600301805461091e906133b3565b80601f016020809104026020016040519081016040528092919081815260200182805461094a906133b3565b80156109975780601f1061096c57610100808354040283529160200191610997565b820191906000526020600020905b81548152906001019060200180831161097a57829003601f168201915b5050505050908060040154908060050160009054906101000a900460ff16905086565b600981815481106109ca57600080fd5b90600052602060002090600602016000915090508060000160009054906101000a900473ffffffffffffffffffffffffffffffffffffffff1690806001018054610a13906133b3565b80601f0160208091040260200160405190810160405280929190818152602001828054610a3f906133b3565b8015610a8c5780601f10610a6157610100808354040283529160200191610a8c565b820191906000526020600020905b815481529060010190602001808311610a6f57829003601f168201915b505050505090806002015490806003018054610aa7906133b3565b80601f0160208091040260200160405190810160405280929190818152602001828054610ad3906133b3565b8015610b205780601f10610af557610100808354040283529160200191610b20565b820191906000526020600020905b815481529060010190602001808311610b0357829003601f168201915b5050505050908060040154908060050160009054906101000a900460ff16905086565b610b4b6126de565b6000600e6000848152602001908152602001600020549050600060f81b81600060208110610b7c57610b7b6132de565b5b1a60f81b7effffffffffffffffffffffffffffffffffffffffffffffffffffffffffffff191614610bbe576000610bb282611333565b90508092505050610bd1565b6000610bc984611333565b905080925050505b919050565b60008054906101000a900473ffffffffffffffffffffffffffffffffffffffff1673ffffffffffffffffffffffffffffffffffffffff163373ffffffffffffffffffffffffffffffffffffffff1603610c2e57600080fd5b6000610c3982610585565b90506001151581151503610e61577f85ace08f038481adc2bfd0f855a5103eed84d76d1889e2837c00a5f0b64dd50b33604051610c769190612e42565b60405180910390a16000604051806060016040528060006005811115610c9f57610c9e612827565b5b81526020013373ffffffffffffffffffffffffffffffffffffffff16815260200160001515815250905080600d600085815260200190815260200160002060008201518160000160006101000a81548160ff02191690836005811115610d0857610d07612827565b5b021790555060208201518160000160016101000a81548173ffffffffffffffffffffffffffffffffffffffff021916908373ffffffffffffffffffffffffffffffffffffffff16021790555060408201518160000160156101000a81548160ff021916908315150217905550905050600060405180604001604052803373ffffffffffffffffffffffffffffffffffffffff168152602001858152509050600781908060018154018082558091505060019003906000526020600020906002020160009091909190915060008201518160000160006101000a81548173ffffffffffffffffffffffffffffffffffffffff021916908373ffffffffffffffffffffffffffffffffffffffff1602179055506020820151816001015550507feb56067adf2919f9de03c1d1b99d640dc3897790d2af7784e06c9299b66b27f03385604051610e56929190613183565b60405180910390a150505b5050565b60018060000160009054906101000a900473ffffffffffffffffffffffffffffffffffffffff1690806001018054610e9c906133b3565b80601f0160208091040260200160405190810160405280929190818152602001828054610ec8906133b3565b8015610f155780601f10610eea57610100808354040283529160200191610f15565b820191906000526020600020905b815481529060010190602001808311610ef857829003601f168201915b505050505090806002015490806003018054610f30906133b3565b80601f0160208091040260200160405190810160405280929190818152602001828054610f5c906133b3565b8015610fa95780601f10610f7e57610100808354040283529160200191610fa9565b820191906000526020600020905b815481529060010190602001808311610f8c57829003601f168201915b5050505050908060040154908060050160009054906101000a900460ff16905086565b60606007805480602002602001604051908101604052809291908181526020016000905b8282101561108257838290600052602060002090600202016040518060400160405290816000820160009054906101000a900473ffffffffffffffffffffffffffffffffffffffff1673ffffffffffffffffffffffffffffffffffffffff1673ffffffffffffffffffffffffffffffffffffffff16815260200160018201548152505081526020019060010190610ff0565b50505050905090565b60606009805480602002602001604051908101604052809291908181526020016000905b8282101561128a57838290600052602060002090600602016040518060c00160405290816000820160009054906101000a900473ffffffffffffffffffffffffffffffffffffffff1673ffffffffffffffffffffffffffffffffffffffff1673ffffffffffffffffffffffffffffffffffffffff168152602001600182018054611138906133b3565b80601f0160208091040260200160405190810160405280929190818152602001828054611164906133b3565b80156111b15780601f10611186576101008083540402835291602001916111b1565b820191906000526020600020905b81548152906001019060200180831161119457829003601f168201915b50505050508152602001600282015481526020016003820180546111d4906133b3565b80601f0160208091040260200160405190810160405280929190818152602001828054611200906133b3565b801561124d5780601f106112225761010080835404028352916020019161124d565b820191906000526020600020905b81548152906001019060200180831161123057829003601f168201915b50505050508152602001600482015481526020016005820160009054906101000a900460ff161515151581525050815260200190600101906110af565b50505050905090565b60008054906101000a900473ffffffffffffffffffffffffffffffffffffffff1681565b600b6020528060005260406000206000915090508060000160009054906101000a900460ff16908060000160019054906101000a900473ffffffffffffffffffffffffffffffffffffffff16908060000160159054906101000a900460ff16905083565b600e6020528060005260406000206000915090505481565b61133b6126de565b60005b6008805490508110156115685782600882815481106113605761135f6132de565b5b90600052602060002090600602016002015403611555576008818154811061138b5761138a6132de565b5b90600052602060002090600602016040518060c00160405290816000820160009054906101000a900473ffffffffffffffffffffffffffffffffffffffff1673ffffffffffffffffffffffffffffffffffffffff1673ffffffffffffffffffffffffffffffffffffffff16815260200160018201805461140a906133b3565b80601f0160208091040260200160405190810160405280929190818152602001828054611436906133b3565b80156114835780601f1061145857610100808354040283529160200191611483565b820191906000526020600020905b81548152906001019060200180831161146657829003601f168201915b50505050508152602001600282015481526020016003820180546114a6906133b3565b80601f01602080910402602001604051908101604052809291908181526020018280546114d2906133b3565b801561151f5780601f106114f45761010080835404028352916020019161151f565b820191906000526020600020905b81548152906001019060200180831161150257829003601f168201915b50505050508152602001600482015481526020016005820160009054906101000a900460ff16151515158152505091505061156a565b80806115609061333c565b91505061133e565b505b919050565b600c6020528060005260406000206000915090508060000160009054906101000a900460ff16908060000160019054906101000a900473ffffffffffffffffffffffffffffffffffffffff16908060000160159054906101000a900460ff16905083565b600115158115151461161a576040517f08c379a00000000000000000000000000000000000000000000000000000000081526004016116119061347c565b60405180910390fd5b600042905060006040518060c001604052803373ffffffffffffffffffffffffffffffffffffffff1681526020018781526020018681526020018581526020018381526020018415158152509050600881908060018154018082558091505060019003906000526020600020906006020160009091909190915060008201518160000160006101000a81548173ffffffffffffffffffffffffffffffffffffffff021916908373ffffffffffffffffffffffffffffffffffffffff16021790555060208201518160010190816116f09190613648565b506040820151816002015560608201518160030190816117109190613648565b506080820151816004015560a08201518160050160006101000a81548160ff0219169083151502179055505050505050505050565b61174d61272f565b6000600b60008481526020019081526020016000206040518060600160405290816000820160009054906101000a900460ff16600581111561179257611791612827565b5b60058111156117a4576117a3612827565b5b81526020016000820160019054906101000a900473ffffffffffffffffffffffffffffffffffffffff1673ffffffffffffffffffffffffffffffffffffffff1673ffffffffffffffffffffffffffffffffffffffff1681526020016000820160159054906101000a900460ff161515151581525050905080915050919050565b60008054906101000a900473ffffffffffffffffffffffffffffffffffffffff1673ffffffffffffffffffffffffffffffffffffffff163373ffffffffffffffffffffffffffffffffffffffff160361187c57600080fd5b600160058111156118905761188f612827565b5b600b600085815260200190815260200160002060000160009054906101000a900460ff1660058111156118c6576118c5612827565b5b146118d057600080fd5b60004290506000806040518060c001604052803373ffffffffffffffffffffffffffffffffffffffff1681526020018881526020018581526020018681526020018481526020018315158152509050600881908060018154018082558091505060019003906000526020600020906006020160009091909190915060008201518160000160006101000a81548173ffffffffffffffffffffffffffffffffffffffff021916908373ffffffffffffffffffffffffffffffffffffffff16021790555060208201518160010190816119a79190613648565b506040820151816002015560608201518160030190816119c79190613648565b506080820151816004015560a08201518160050160006101000a81548160ff02191690831515021790555050507f62757ddf638cd9a370f92799b0c92ee1f2daa8c57c1f60fe7f133c923b1ddff184604051611a239190613766565b60405180910390a16003600b600088815260200190815260200160002060000160006101000a81548160ff02191690836005811115611a6557611a64612827565b5b021790555050505050505050565b60078181548110611a8357600080fd5b90600052602060002090600202016000915090508060000160009054906101000a900473ffffffffffffffffffffffffffffffffffffffff16908060010154905082565b611acf61272f565b6000600c60008481526020019081526020016000206040518060600160405290816000820160009054906101000a900460ff166005811115611b1457611b13612827565b5b6005811115611b2657611b25612827565b5b81526020016000820160019054906101000a900473ffffffffffffffffffffffffffffffffffffffff1673ffffffffffffffffffffffffffffffffffffffff1673ffffffffffffffffffffffffffffffffffffffff1681526020016000820160159054906101000a900460ff161515151581525050905080915050919050565b600a6020528060005260406000206000915090508060000160009054906101000a900473ffffffffffffffffffffffffffffffffffffffff1690806001018054611bef906133b3565b80601f0160208091040260200160405190810160405280929190818152602001828054611c1b906133b3565b8015611c685780601f10611c3d57610100808354040283529160200191611c68565b820191906000526020600020905b815481529060010190602001808311611c4b57829003601f168201915b505050505090806002015490806003018054611c83906133b3565b80601f0160208091040260200160405190810160405280929190818152602001828054611caf906133b3565b8015611cfc5780601f10611cd157610100808354040283529160200191611cfc565b820191906000526020600020905b815481529060010190602001808311611cdf57829003601f168201915b5050505050908060040154908060050160009054906101000a900460ff16905086565b60036005811115611d3357611d32612827565b5b600b600085815260200190815260200160002060000160009054906101000a900460ff166005811115611d6957611d68612827565b5b14611d7357600080fd5b8415611fae5760006040518060c001604052803373ffffffffffffffffffffffffffffffffffffffff16815260200186815260200183815260200184815260200142815260200160001515815250905080600a600086815260200190815260200160002060008201518160000160006101000a81548173ffffffffffffffffffffffffffffffffffffffff021916908373ffffffffffffffffffffffffffffffffffffffff1602179055506020820151816001019081611e339190613648565b50604082015181600201556060820151816003019081611e539190613648565b506080820151816004015560a08201518160050160006101000a81548160ff0219169083151502179055509050506004600b600086815260200190815260200160002060000160006101000a81548160ff02191690836005811115611ebb57611eba612827565b5b02179055506004600d600086815260200190815260200160002060000160006101000a81548160ff02191690836005811115611efa57611ef9612827565b5b021790555083600e6000848152602001908152602001600020819055506007805480611f2957611f28613794565b5b6001900381819060005260206000209060020201600080820160006101000a81549073ffffffffffffffffffffffffffffffffffffffff02191690556001820160009055505090557f2dd4975b1bec1cce396482832c16151acd051844b83114d65be50e820316ae1182604051611fa0919061380f565b60405180910390a150612064565b6005600b600085815260200190815260200160002060000160006101000a81548160ff02191690836005811115611fe857611fe7612827565b5b02179055506005600d600085815260200190815260200160002060000160006101000a81548160ff0219169083600581111561202757612026612827565b5b02179055507f02e44801cf9dff20fd231a5c9463d5a165c36e6ddad08c3c4461c9ed48aa6e168160405161205b9190613889565b60405180910390a15b5050505050565b60606008805480602002602001604051908101604052809291908181526020016000905b8282101561226a57838290600052602060002090600602016040518060c00160405290816000820160009054906101000a900473ffffffffffffffffffffffffffffffffffffffff1673ffffffffffffffffffffffffffffffffffffffff1673ffffffffffffffffffffffffffffffffffffffff168152602001600182018054612118906133b3565b80601f0160208091040260200160405190810160405280929190818152602001828054612144906133b3565b80156121915780601f1061216657610100808354040283529160200191612191565b820191906000526020600020905b81548152906001019060200180831161217457829003601f168201915b50505050508152602001600282015481526020016003820180546121b4906133b3565b80601f01602080910402602001604051908101604052809291908181526020018280546121e0906133b3565b801561222d5780601f106122025761010080835404028352916020019161222d565b820191906000526020600020905b81548152906001019060200180831161221057829003601f168201915b50505050508152602001600482015481526020016005820160009054906101000a900460ff1615151515815250508152602001906001019061208f565b50505050905090565b61227b61272f565b6000600d60008481526020019081526020016000206040518060600160405290816000820160009054906101000a900460ff1660058111156122c0576122bf612827565b5b60058111156122d2576122d1612827565b5b81526020016000820160019054906101000a900473ffffffffffffffffffffffffffffffffffffffff1673ffffffffffffffffffffffffffffffffffffffff1673ffffffffffffffffffffffffffffffffffffffff1681526020016000820160159054906101000a900460ff161515151581525050905080915050919050565b6000600581111561236657612365612827565b5b600d600083815260200190815260200160002060000160009054906101000a900460ff16600581111561239c5761239b612827565b5b146123a657600080fd5b821561255c5760006040518060600160405280600160058111156123cd576123cc612827565b5b81526020013373ffffffffffffffffffffffffffffffffffffffff168152602001851515815250905080600b600084815260200190815260200160002060008201518160000160006101000a81548160ff0219169083600581111561243557612434612827565b5b021790555060208201518160000160016101000a81548173ffffffffffffffffffffffffffffffffffffffff021916908373ffffffffffffffffffffffffffffffffffffffff16021790555060408201518160000160156101000a81548160ff021916908315150217905550905050600160058111156124b8576124b7612827565b5b600d600084815260200190815260200160002060000160009054906101000a900460ff1660058111156124ee576124ed612827565b5b50506001600d600084815260200190815260200160002060000160156101000a81548160ff0219169083151502179055507f30f499dee5aca26bf88e6932509f2693b637e648ec36ac97034db8869f1186398360405161254e9190613903565b60405180910390a1506126d9565b600060405180606001604052806002600581111561257d5761257c612827565b5b81526020013373ffffffffffffffffffffffffffffffffffffffff168152602001851515815250905080600c600084815260200190815260200160002060008201518160000160006101000a81548160ff021916908360058111156125e5576125e4612827565b5b021790555060208201518160000160016101000a81548173ffffffffffffffffffffffffffffffffffffffff021916908373ffffffffffffffffffffffffffffffffffffffff16021790555060408201518160000160156101000a81548160ff0219169083151502179055509050506002600581111561266857612667612827565b5b600d600084815260200190815260200160002060000160009054906101000a900460ff16600581111561269e5761269d612827565b5b50507fb72d3d0ddac6222a8090aba8a89a5f33ea480ca5e3201dea0f31f5da8203f249836040516126cf919061397d565b60405180910390a1505b505050565b6040518060c00160405280600073ffffffffffffffffffffffffffffffffffffffff168152602001606081526020016000801916815260200160608152602001600081526020016000151581525090565b60405180606001604052806000600581111561274e5761274d612827565b5b8152602001600073ffffffffffffffffffffffffffffffffffffffff1681526020016000151581525090565b6000604051905090565b600080fd5b600080fd5b6000819050919050565b6127a18161278e565b81146127ac57600080fd5b50565b6000813590506127be81612798565b92915050565b6000602082840312156127da576127d9612784565b5b60006127e8848285016127af565b91505092915050565b60008115159050919050565b612806816127f1565b82525050565b600060208201905061282160008301846127fd565b92915050565b7f4e487b7100000000000000000000000000000000000000000000000000000000600052602160045260246000fd5b6006811061286757612866612827565b5b50565b600081905061287882612856565b919050565b60006128888261286a565b9050919050565b6128988161287d565b82525050565b600073ffffffffffffffffffffffffffffffffffffffff82169050919050565b60006128c98261289e565b9050919050565b6128d9816128be565b82525050565b60006060820190506128f4600083018661288f565b61290160208301856128d0565b61290e60408301846127fd565b949350505050565b61291f816128be565b82525050565b600081519050919050565b600082825260208201905092915050565b60005b8381101561295f578082015181840152602081019050612944565b60008484015250505050565b6000601f19601f8301169050919050565b600061298782612925565b6129918185612930565b93506129a1818560208601612941565b6129aa8161296b565b840191505092915050565b6129be8161278e565b82525050565b6000819050919050565b6129d7816129c4565b82525050565b6129e6816127f1565b82525050565b600060c083016000830151612a046000860182612916565b5060208301518482036020860152612a1c828261297c565b9150506040830151612a3160408601826129b5565b5060608301518482036060860152612a49828261297c565b9150506080830151612a5e60808601826129ce565b5060a0830151612a7160a08601826129dd565b508091505092915050565b60006020820190508181036000830152612a9681846129ec565b905092915050565b612aa7816129c4565b8114612ab257600080fd5b50565b600081359050612ac481612a9e565b92915050565b600060208284031215612ae057612adf612784565b5b6000612aee84828501612ab5565b91505092915050565b600082825260208201905092915050565b6000612b1382612925565b612b1d8185612af7565b9350612b2d818560208601612941565b612b368161296b565b840191505092915050565b612b4a8161278e565b82525050565b612b59816129c4565b82525050565b600060c082019050612b7460008301896128d0565b8181036020830152612b868188612b08565b9050612b956040830187612b41565b8181036060830152612ba78186612b08565b9050612bb66080830185612b50565b612bc360a08301846127fd565b979650505050505050565b600081519050919050565b600082825260208201905092915050565b6000819050602082019050919050565b604082016000820151612c106000850182612916565b506020820151612c2360208501826129b5565b50505050565b6000612c358383612bfa565b60408301905092915050565b6000602082019050919050565b6000612c5982612bce565b612c638185612bd9565b9350612c6e83612bea565b8060005b83811015612c9f578151612c868882612c29565b9750612c9183612c41565b925050600181019050612c72565b5085935050505092915050565b60006020820190508181036000830152612cc68184612c4e565b905092915050565b600081519050919050565b600082825260208201905092915050565b6000819050602082019050919050565b600060c083016000830151612d126000860182612916565b5060208301518482036020860152612d2a828261297c565b9150506040830151612d3f60408601826129b5565b5060608301518482036060860152612d57828261297c565b9150506080830151612d6c60808601826129ce565b5060a0830151612d7f60a08601826129dd565b508091505092915050565b6000612d968383612cfa565b905092915050565b6000602082019050919050565b6000612db682612cce565b612dc08185612cd9565b935083602082028501612dd285612cea565b8060005b85811015612e0e5784840389528151612def8582612d8a565b9450612dfa83612d9e565b925060208a01995050600181019050612dd6565b50829750879550505050505092915050565b60006020820190508181036000830152612e3a8184612dab565b905092915050565b6000602082019050612e5760008301846128d0565b92915050565b6000602082019050612e726000830184612b41565b92915050565b600080fd5b600080fd5b7f4e487b7100000000000000000000000000000000000000000000000000000000600052604160045260246000fd5b612eba8261296b565b810181811067ffffffffffffffff82111715612ed957612ed8612e82565b5b80604052505050565b6000612eec61277a565b9050612ef88282612eb1565b919050565b600067ffffffffffffffff821115612f1857612f17612e82565b5b612f218261296b565b9050602081019050919050565b82818337600083830152505050565b6000612f50612f4b84612efd565b612ee2565b905082815260208101848484011115612f6c57612f6b612e7d565b5b612f77848285612f2e565b509392505050565b600082601f830112612f9457612f93612e78565b5b8135612fa4848260208601612f3d565b91505092915050565b612fb6816127f1565b8114612fc157600080fd5b50565b600081359050612fd381612fad565b92915050565b60008060008060808587031215612ff357612ff2612784565b5b600085013567ffffffffffffffff81111561301157613010612789565b5b61301d87828801612f7f565b945050602061302e878288016127af565b935050604085013567ffffffffffffffff81111561304f5761304e612789565b5b61305b87828801612f7f565b925050606061306c87828801612fc4565b91505092959194509250565b6130818161287d565b82525050565b60608201600082015161309d6000850182613078565b5060208201516130b06020850182612916565b5060408201516130c360408501826129dd565b50505050565b60006060820190506130de6000830184613087565b92915050565b600080600080608085870312156130fe576130fd612784565b5b600085013567ffffffffffffffff81111561311c5761311b612789565b5b61312887828801612f7f565b9450506020613139878288016127af565b935050604085013567ffffffffffffffff81111561315a57613159612789565b5b61316687828801612f7f565b9250506060613177878288016127af565b91505092959194509250565b600060408201905061319860008301856128d0565b6131a56020830184612b41565b9392505050565b600080600080600060a086880312156131c8576131c7612784565b5b60006131d688828901612fc4565b955050602086013567ffffffffffffffff8111156131f7576131f6612789565b5b61320388828901612f7f565b9450506040613214888289016127af565b935050606086013567ffffffffffffffff81111561323557613234612789565b5b61324188828901612f7f565b9250506080613252888289016127af565b9150509295509295909350565b613268816128be565b811461327357600080fd5b50565b6000813590506132858161325f565b92915050565b6000806000606084860312156132a4576132a3612784565b5b60006132b286828701612fc4565b93505060206132c386828701613276565b92505060406132d4868287016127af565b9150509250925092565b7f4e487b7100000000000000000000000000000000000000000000000000000000600052603260045260246000fd5b7f4e487b7100000000000000000000000000000000000000000000000000000000600052601160045260246000fd5b6000613347826129c4565b91507fffffffffffffffffffffffffffffffffffffffffffffffffffffffffffffffff82036133795761337861330d565b5b600182019050919050565b7f4e487b7100000000000000000000000000000000000000000000000000000000600052602260045260246000fd5b600060028204905060018216806133cb57607f821691505b6020821081036133de576133dd613384565b5b50919050565b7f596f752063616e6e6f742072657175657374207065726d697373696f6e20666f60008201527f72206120766964656f207468617420686173206e6f74206265656e206167726560208201527f656420746f000000000000000000000000000000000000000000000000000000604082015250565b6000613466604583612af7565b9150613471826133e4565b606082019050919050565b6000602082019050818103600083015261349581613459565b9050919050565b60008190508160005260206000209050919050565b60006020601f8301049050919050565b600082821b905092915050565b6000600883026134fe7fffffffffffffffffffffffffffffffffffffffffffffffffffffffffffffffff826134c1565b61350886836134c1565b95508019841693508086168417925050509392505050565b6000819050919050565b600061354561354061353b846129c4565b613520565b6129c4565b9050919050565b6000819050919050565b61355f8361352a565b61357361356b8261354c565b8484546134ce565b825550505050565b600090565b61358861357b565b613593818484613556565b505050565b5b818110156135b7576135ac600082613580565b600181019050613599565b5050565b601f8211156135fc576135cd8161349c565b6135d6846134b1565b810160208510156135e5578190505b6135f96135f1856134b1565b830182613598565b50505b505050565b600082821c905092915050565b600061361f60001984600802613601565b1980831691505092915050565b6000613638838361360e565b9150826002028217905092915050565b61365182612925565b67ffffffffffffffff81111561366a57613669612e82565b5b61367482546133b3565b61367f8282856135bb565b600060209050601f8311600181146136b257600084156136a0578287015190505b6136aa858261362c565b865550613712565b601f1984166136c08661349c565b60005b828110156136e8578489015182556001820191506020850194506020810190506136c3565b868310156137055784890151613701601f89168261360e565b8355505b6001600288020188555050505b505050505050565b7f41646472657373206f66206368696c643a200000000000000000000000000000600082015250565b6000613750601283612af7565b915061375b8261371a565b602082019050919050565b6000604082019050818103600083015261377f81613743565b905061378e6020830184612b41565b92915050565b7f4e487b7100000000000000000000000000000000000000000000000000000000600052603160045260246000fd5b7f5375636365737366756c6c792041747465737465643a20000000000000000000600082015250565b60006137f9601783612af7565b9150613804826137c3565b602082019050919050565b60006040820190508181036000830152613828816137ec565b90506138376020830184612b41565b92915050565b7f44656e696564204174746573746174696f6e3a20000000000000000000000000600082015250565b6000613873601483612af7565b915061387e8261383d565b602082019050919050565b600060408201905081810360008301526138a281613866565b90506138b16020830184612b41565b92915050565b7f5065726d697373696f6e204772616e74656420746f2061646472657373200000600082015250565b60006138ed601e83612af7565b91506138f8826138b7565b602082019050919050565b6000604082019050818103600083015261391c816138e0565b905061392b60208301846128d0565b92915050565b7f5065726d697373696f6e2044656e69656420746f206164647265737320000000600082015250565b6000613967601d83612af7565b915061397282613931565b602082019050919050565b600060408201905081810360008301526139968161395a565b90506139a560208301846128d0565b9291505056fea26469706673582212208981aa5bb06c26d765d8ac29742f0028140a98730e59ca8522fd6ce6a6f6aa3064736f6c63430008120033",
  "immutableReferences": {},
  "source": "// SPDX-License-Identifier: MIT\npragma solidity ^0.8.0;\n\ncontract Vid_Traceability{\n\naddress public owner;\nVideo public thisVideo;\n\n\n//this structure is used for all videos in a chain used for provenance data\nstruct Video {\n  address vid_owner;//Ethereum address of the video owner\n  string info;//informtation about the video\n  bytes32 IPFS_Hash;//IPFS hash of the uploaded video on the IPFS server\n  string metadata;\n  uint256 timestamp;\n  bool agreement;\n}\n\nenum artistState {SentRequest,  GrantedPermission, DeniedPermission, SentAttestationRequest, GrantedAttestation, DeniedAttestation } \n\n\n//an Artist can have multiple requests each with a unique IPFS hash\nstruct Artist{\n    artistState state;\n    address EA;\n    bool result;//by default false unless granted permission\n}\n\nstruct RequestReg{\n    address sender;\n    bytes32 content;\n}\n\nRequestReg[] public requestEntries;\n\n// bool public parent;//if true it means it has a parent and it is a child\n// Video public parent_video;//parent video if any\nVideo[] public regVideos;\nVideo[] public agreeVid;\n\nmapping (bytes32 =>Video) public Granted_Permission_ChildVideos;//for history tracking, mapping all children videos with their SC address\nmapping (bytes32 => Artist) public Granted_Permissions;// EA of artists with granted permissions, maps between the EA and the IPFS hash of the video\nmapping (bytes32 => Artist) public Denied_Permissions;//list of artists with denied permissions,maps between the EA and the IPFS hash of the video\nmapping (bytes32=>Artist) public Requests;//all requets , EA and IPFS hash\nmapping (bytes32 => bytes32) public Records;\n\n\nmodifier OnlyOwner(){\n    require(msg.sender == owner);\n    _;\n} \n\nmodifier NotOwner(){\n    require(msg.sender != owner);\n    _;\n}\n//events\nevent ArtistRequestingPermission(address artist);\nevent ArtistRequestRegistered(address artist, bytes32 IPFS_Hash);\nevent PermissionGranted(string info, address artist);\nevent PermissionDenied(string info, address artist);\nevent AttestationRequest(string info, bytes32 newHash);\nevent AttestationGranted(string info, bytes32 newHash);\nevent AttestationDenied(string info, bytes32 newHash);\n\n//constructor\nconstructor() public{\n    owner = msg.sender;\n    thisVideo.vid_owner = msg.sender;\n    thisVideo.IPFS_Hash = 'kkowfwjg';\n    thisVideo.info = \"A funny Video\";\n    thisVideo.metadata = \"Data:18/9/2018, Time:5:57\";\n    thisVideo.timestamp = block.timestamp;\n    thisVideo.agreement = true;\n    regVideos.push(thisVideo);\n    for (uint i = 0; i < regVideos.length; i++) {\n            if(regVideos[i].agreement == true){\n                agreeVid.push(regVideos[i]);\n            }\n        }\n\n}\n\n    //this function adds new video\n    function addVideo(string memory info,bytes32 hash,string memory metadata,bool agreement) public {\n        require(agreement==true, \"You cannot request permission for a video that has not been agreed to\");\n        uint256 tp  = block.timestamp;\n        Video memory new_video = Video(msg.sender,info,hash,metadata,tp,agreement);\n        regVideos.push(new_video);\n    }\n\n    function checkIFVideoExists(bytes32 IPFS_Hash) public view returns(bool s){\n        bool flag = false;\n        for (uint i = 0; i <= regVideos.length; i++) {\n            if(regVideos[i].IPFS_Hash == IPFS_Hash){\n                flag = true;\n                return true;\n            }\n        }\n        \n    }\n\n     \n\n    function getRegVideos() public view returns(Video[] memory){\n        return regVideos;\n    }\n\n    function getRequestEntries() public view returns(RequestReg[] memory){\n        return requestEntries;\n    }\n\n    function getAgreeVideos() public view returns(Video[] memory){\n        return agreeVid;\n    }\n\n\n    function getVideoByHash(bytes32 ipfsHash) public view returns(Video memory v){\n        for (uint i = 0; i < regVideos.length; i++) {\n            if(regVideos[i].IPFS_Hash == ipfsHash){\n                return regVideos[i];\n            }\n        }\n    }\n\n    function getRequest(bytes32 IPFShash) public view returns(Artist memory){\n        Artist memory newArtist = Requests[IPFShash];\n        return newArtist;\n    }\n\n    \n\n    function getGrantedPermissions(bytes32 IPFShash) public view returns(Artist memory){\n        Artist memory newArtist = Granted_Permissions[IPFShash];\n        return newArtist;\n    }\n\n    function getDeniedPermissions(bytes32 IPFShash) public view returns(Artist memory){\n        Artist memory newArtist = Denied_Permissions[IPFShash];\n        return newArtist;\n    }\n\n    function getGrantedPermissionChildVideos(bytes32 IPFShash) public view returns(Video memory){\n        Video memory newVideo = Granted_Permission_ChildVideos[IPFShash];\n        return newVideo;\n    }\n\n    function getRecords(bytes32 IPFShash) public view returns(Video memory v){\n        bytes32 hash = Records[IPFShash];\n        if(hash[0]!= 0){\n            Video memory vid = getVideoByHash(hash);\n            return vid;\n        }\n        else{\n            Video memory newVideo = getVideoByHash(IPFShash);\n            return newVideo;\n        }\n        \n    }\n    \n\n    \n    //this function is called by other interested editors to create new versions of the video\n    //an editor requetsing permissions indicates that they agreed to the agreement form\n    function requestPermission(bytes32 IPFShash) public NotOwner{\n        bool check = checkIFVideoExists(IPFShash);\n        if(check == true){\n            emit ArtistRequestingPermission(msg.sender);//register artist\n            //false by default until granted permission\n            Artist memory newArtist = Artist(artistState.SentRequest,msg.sender,false);\n            Requests[IPFShash] = newArtist;\n            RequestReg memory newEntry = RequestReg(msg.sender,IPFShash);\n            requestEntries.push(newEntry);\n            emit ArtistRequestRegistered(msg.sender, IPFShash);\n        }\n    }\n    \n    //this function is used by the owner to grant permsissions\n    function grantPermission(bool result, address artist,bytes32 IPFShash) public{\n        require(Requests[IPFShash].state == artistState.SentRequest);\n        if(result){\n            Artist memory newArtist = Artist(artistState.GrantedPermission,msg.sender,result);\n            Granted_Permissions[IPFShash] = newArtist;\n            Requests[IPFShash].state == artistState.GrantedPermission;\n            Requests[IPFShash].result = true;\n            emit PermissionGranted(\"Permission Granted to address \", artist);  \n        }\n        else {\n             Artist memory newArtist = Artist(artistState.DeniedPermission,msg.sender,result);\n             Denied_Permissions[IPFShash] = newArtist;\n             Requests[IPFShash].state == artistState.DeniedPermission;\n            emit PermissionDenied(\"Permission Denied to address \", artist);\n        }\n    }\n\n    \n    //this function is called by the artist after getting an approval and creating a child SC \n    function AttestSC(string memory infor, bytes32 hash, string memory meta,bytes32 newHash) public NotOwner{\n        require(Granted_Permissions[hash].state == artistState.GrantedPermission);\n        uint256 tp  = block.timestamp;\n        bool agreement = false;\n        Video memory new_video = Video(msg.sender,infor,newHash,meta,tp,agreement);\n        regVideos.push(new_video);\n        emit AttestationRequest(\"Address of child: \" , newHash);\n        Granted_Permissions[hash].state = artistState.SentAttestationRequest;\n    }\n    \n    function GrantAttestation(bool result, string memory infor, bytes32 hash, string memory meta, bytes32 newHash) public{\n    require(Granted_Permissions[hash].state == artistState.SentAttestationRequest);\n        if(result){\n         Video memory newVideo = Video(msg.sender,infor,newHash,meta,block.timestamp,false);\n         Granted_Permission_ChildVideos[hash] = newVideo;\n         Granted_Permissions[hash].state = artistState.GrantedAttestation;\n         Requests[hash].state = artistState.GrantedAttestation; \n         Records[newHash] = hash;\n         requestEntries.pop();\n         emit AttestationGranted(\"Successfully Attested: \", newHash);\n        }\n        else\n        {\n         Granted_Permissions[hash].state = artistState.DeniedAttestation;//Granted permission for the request, but denied attestation\n         Requests[hash].state = artistState.DeniedAttestation;\n         emit AttestationDenied(\"Denied Attestation: \", newHash);   \n        }\n    }\n    \n}\n\n",
  "sourcePath": "D:\\Video Crate\\truffle\\contracts\\Vid_Traceability.sol",
  "compiler": {
    "name": "solc",
    "version": "0.8.18+commit.87f61d96.Emscripten.clang"
  },
  "schemaVersion": "3.4.13",
  "updatedAt": "2023-06-03T14:32:48.328Z",
  "networkType": "ethereum",
  "devdoc": {
    "kind": "dev",
    "methods": {},
    "version": 1
  },
  "userdoc": {
    "kind": "user",
    "methods": {},
    "version": 1
  }
}